S01E000053414D4432314A3138415F4946455F444953504C41592E73726563E2
S11300005024002019010000150100001501000012
S113001000000000000000000000000000000000DC
S113002000000000000000000000000015010000B6
S11300300000000000000000150100001501000090
S11300401501000015010000150100001501000054
S11300501501000015010000150100001501000044
S11300601501000015010000150100001501000034
S11300701501000015010000150100001501000024
S1130080150100001501000099020000150100008F
S11300901501000015010000150100001501000004
S11300A015010000150100001501000015010000F4
S11300B00000000010B5064C2378002B07D1054B37
S11300C0002B02D0044800E000BF0123237010BDC0
S11300D030040020000000007C04000008B5084B38
S11300E0002B03D00748084900E000BF0748036815
S11300F0002B00D108BD064B002BFBD09847F9E735
S1130100000000007C040000340400207C04000093
S113011000000000FEE7C04670B52E4B2E4A9A42FE
S113012003D02E4B2B4A9A4204D32D4B2D4A9A428C
S113013010D31EE02C4A294B03339B1A9B0801332E
S11301409B000022234824498C58845004329A424C
S1130150FAD1EAE7254A224B03339B1A9B08013361
S11301609B0000221F4800211418216004329A4287
S1130170FAD11F4AFF211F4B8B439360FD39902313
S11301805B001D4AD1501D48C3780324A3430222B7
S11301901343C370C3780C26B34308210B43C370C5
S11301A0174B987B3025A843051C202028439873BF
S11301B0987BB04301439973997BA1430A439A7393
S11301C0104A516880230B4353600F4B98470F4BE1
S11301D09847FEE7000000207C0400003004002063
S11301E050040020300400200400002034040020C7
S11301F000ED00E0000000000070004100500041EC
S11302000048004100400041D90200006D02000096
S1130210014A024B1A60704740420F000000002060
S11302200D4A0E4B1A800E4A1368802109010B43B4
S113023013600C4B1988C02292000A431A800321D0
S1130240094A1170198802220A431A801A1CD37BA6
S1130250DB09012BFBD070471B400000020C00405F
S113026020040040002C00420D2C004208B5064B2F
S113027098478022D202054B1A60054B984780228A
S1130280D205044B1A60FEE71102000000E100E011
S113029021020000884400410B4B9B7BDB0707D500
S11302A08022D205094B1A600122094B1A7009E019
S11302B0054B9B7B9B0705D50122064B1A70013227
S11302C0034B1A707047C046002C00429C44004106
S11302D00E2C00424C04002070B50D4E0D4D002430
S11302E0AD1BAD1005D0A300F35801349847A542C7
S11302F0F9D100F0B1F8084E084D0024AD1BAD1043
S113030005D0A300F35801349847A542F9D170BD34
S11303106404000064040000640400006C04000031
S113032008B5034B002B02D0024800F005F808BDC5
S1130330000000004903000008B5011C0022002051
S1130340002300F01BF808BD38B5094B094CE41A2A
S1130350A41009D0084AA518AD00ED182B68013C7B
S11303609847043D002CF9D100F080F838BDC04610
S1130370780400007C040000FFFFFF3FF8B544460A
S11303805F4656464D469B462F4BF0B41C68A4234B
S11303905B00051CE0580E1C904600284BD04368B7
S11303A01F2B0DDC5C1C002D21D102339B0044600B
S11303B01E5000203CBC90469946A246AB46F8BD70
S11303C0224B002B3CD0C820400000E000BF002896
S11303D036D0A42200235200A15843600160A050EB
S11303E040328350043283500124002DDDD09A0022
S11303F091468144424688214F467A50C422520095
S11304009046804442468739994012688A460A4396
S11304109446424661461160842249465F46520032
S11304208F50022DC1D1021C55468D32FF32116806
S11304300D431560B9E7201C4D30FF30E050AEE7A6
S113044001204042B6E7C04654040000000000000A
S11304504300000008000020F8B5C046F8BC08BC02
S11304609E46704721030000DD000000F8B5C04639
S10F0470F8BC08BC9E467047B5000000B4
S113047C40420F000000000000000000F4020020C5
S113048C5C030020C40300200000000000000000F6
S113049C000000000000000000000000000000004C
S11304AC00000000000000000000000050040000E8
S11304BC000000000000000000000000000000002C
S11304CC000000000000000000000000000000001C
S11304DC000000000000000000000000000000000C
S11304EC00000000000000000000000000000000FC
S11304FC00000000000000000000000000000000EC
S113050C00000000000000000000000000000000DB
S113051C00000000000000000000000000000000CB
S113052C01000000000000000E33CDAB34126DE668
S113053CECDE05000B0000000000000000000000D1
S113054C000000000000000000000000000000009B
S113055C000000000000000000000000000000008B
S113056C000000000000000000000000000000007B
S113057C000000000000000000000000000000006B
S9030000FC
